{
  "contractName": "PhotoAlbum",
  "abi": [
    {
      "inputs": [],
      "name": "photosLength",
      "outputs": [
        {
          "internalType": "uint256",
          "name": "",
          "type": "uint256"
        }
      ],
      "stateMutability": "view",
      "type": "function"
    },
    {
      "inputs": [
        {
          "internalType": "uint256",
          "name": "_id",
          "type": "uint256"
        },
        {
          "internalType": "string",
          "name": "_name",
          "type": "string"
        },
        {
          "internalType": "string",
          "name": "_picture",
          "type": "string"
        }
      ],
      "name": "addPhoto",
      "outputs": [],
      "stateMutability": "nonpayable",
      "type": "function"
    },
    {
      "inputs": [
        {
          "internalType": "uint256",
          "name": "_id",
          "type": "uint256"
        }
      ],
      "name": "deletePhotoById",
      "outputs": [],
      "stateMutability": "nonpayable",
      "type": "function"
    },
    {
      "inputs": [
        {
          "internalType": "uint256",
          "name": "_id",
          "type": "uint256"
        }
      ],
      "name": "getNameById",
      "outputs": [
        {
          "internalType": "string",
          "name": "",
          "type": "string"
        }
      ],
      "stateMutability": "view",
      "type": "function"
    },
    {
      "inputs": [
        {
          "internalType": "uint256",
          "name": "_id",
          "type": "uint256"
        }
      ],
      "name": "getPictureById",
      "outputs": [
        {
          "internalType": "string",
          "name": "",
          "type": "string"
        }
      ],
      "stateMutability": "view",
      "type": "function"
    },
    {
      "inputs": [
        {
          "internalType": "uint256",
          "name": "_id",
          "type": "uint256"
        }
      ],
      "name": "getPhotoById",
      "outputs": [
        {
          "internalType": "string",
          "name": "name",
          "type": "string"
        },
        {
          "internalType": "string",
          "name": "picture",
          "type": "string"
        }
      ],
      "stateMutability": "view",
      "type": "function"
    },
    {
      "inputs": [
        {
          "internalType": "uint256",
          "name": "_id",
          "type": "uint256"
        },
        {
          "internalType": "string",
          "name": "_name",
          "type": "string"
        }
      ],
      "name": "updateNameById",
      "outputs": [],
      "stateMutability": "nonpayable",
      "type": "function"
    },
    {
      "inputs": [
        {
          "internalType": "uint256",
          "name": "_id",
          "type": "uint256"
        },
        {
          "internalType": "string",
          "name": "_name",
          "type": "string"
        },
        {
          "internalType": "string",
          "name": "_picture",
          "type": "string"
        }
      ],
      "name": "updatePictureById",
      "outputs": [],
      "stateMutability": "nonpayable",
      "type": "function"
    },
    {
      "inputs": [
        {
          "internalType": "uint256",
          "name": "_id",
          "type": "uint256"
        },
        {
          "internalType": "string",
          "name": "_picture",
          "type": "string"
        }
      ],
      "name": "updatePictureById",
      "outputs": [],
      "stateMutability": "nonpayable",
      "type": "function"
    }
  ],
  "bytecode": "0x6080604052600060015534801561001557600080fd5b50610d00806100256000396000f3fe608060405234801561001057600080fd5b50600436106100935760003560e01c806375ad7c521161006657806375ad7c521461042557806381d78a9014610443578063d1903d09146104ea578063e0b2c46d146105af578063fb7b19bb146106c257610093565b80630421b1611461009857806306137f3e146101f457806306b069cb1461022257806345f42ec91461037e575b600080fd5b6101f2600480360360608110156100ae57600080fd5b8101908080359060200190929190803590602001906401000000008111156100d557600080fd5b8201836020820111156100e757600080fd5b8035906020019184600183028401116401000000008311171561010957600080fd5b91908080601f016020809104026020016040519081016040528093929190818152602001838380828437600081840152601f19601f8201169050808301925050505050505091929192908035906020019064010000000081111561016c57600080fd5b82018360208201111561017e57600080fd5b803590602001918460018302840111640100000000831117156101a057600080fd5b91908080601f016020809104026020016040519081016040528093929190818152602001838380828437600081840152601f19601f820116905080830192505050505050509192919290505050610787565b005b6102206004803603602081101561020a57600080fd5b8101908080359060200190929190505050610802565b005b61037c6004803603606081101561023857600080fd5b81019080803590602001909291908035906020019064010000000081111561025f57600080fd5b82018360208201111561027157600080fd5b8035906020019184600183028401116401000000008311171561029357600080fd5b91908080601f016020809104026020016040519081016040528093929190818152602001838380828437600081840152601f19601f820116905080830192505050505050509192919290803590602001906401000000008111156102f657600080fd5b82018360208201111561030857600080fd5b8035906020019184600183028401116401000000008311171561032a57600080fd5b91908080601f016020809104026020016040519081016040528093929190818152602001838380828437600081840152601f19601f82011690508083019250505050505050919291929050505061084d565b005b6103aa6004803603602081101561039457600080fd5b810190808035906020019092919050505061089b565b6040518080602001828103825283818151815260200191508051906020019080838360005b838110156103ea5780820151818401526020810190506103cf565b50505050905090810190601f1680156104175780820380516001836020036101000a031916815260200191505b509250505060405180910390f35b61042d610952565b6040518082815260200191505060405180910390f35b61046f6004803603602081101561045957600080fd5b8101908080359060200190929190505050610958565b6040518080602001828103825283818151815260200191508051906020019080838360005b838110156104af578082015181840152602081019050610494565b50505050905090810190601f1680156104dc5780820380516001836020036101000a031916815260200191505b509250505060405180910390f35b6105ad6004803603604081101561050057600080fd5b81019080803590602001909291908035906020019064010000000081111561052757600080fd5b82018360208201111561053957600080fd5b8035906020019184600183028401116401000000008311171561055b57600080fd5b91908080601f016020809104026020016040519081016040528093929190818152602001838380828437600081840152601f19601f820116905080830192505050505050509192919290505050610a0f565b005b6105db600480360360208110156105c557600080fd5b8101908080359060200190929190505050610a43565b604051808060200180602001838103835285818151815260200191508051906020019080838360005b8381101561061f578082015181840152602081019050610604565b50505050905090810190601f16801561064c5780820380516001836020036101000a031916815260200191505b50838103825284818151815260200191508051906020019080838360005b8381101561068557808201518184015260208101905061066a565b50505050905090810190601f1680156106b25780820380516001836020036101000a031916815260200191505b5094505050505060405180910390f35b610785600480360360408110156106d857600080fd5b8101908080359060200190929190803590602001906401000000008111156106ff57600080fd5b82018360208201111561071157600080fd5b8035906020019184600183028401116401000000008311171561073357600080fd5b91908080601f016020809104026020016040519081016040528093929190818152602001838380828437600081840152601f19601f820116905080830192505050505050509192919290505050610bb1565b005b60405180604001604052808381526020018281525060008085815260200190815260200160002060008201518160000190805190602001906107ca929190610be5565b5060208201518160010190805190602001906107e7929190610be5565b50905050600160008154809291906001019190505550505050565b600080828152602001908152602001600020600080820160006108259190610c65565b6001820160006108359190610c65565b50506001600081548092919060019003919050555050565b600080600085815260200190815260200160002090508281600001908051906020019061087b929190610be5565b5081816001019080519060200190610894929190610be5565b5050505050565b60606000808381526020019081526020016000206001018054600181600116156101000203166002900480601f0160208091040260200160405190810160405280929190818152602001828054600181600116156101000203166002900480156109465780601f1061091b57610100808354040283529160200191610946565b820191906000526020600020905b81548152906001019060200180831161092957829003601f168201915b50505050509050919050565b60015481565b60606000808381526020019081526020016000206000018054600181600116156101000203166002900480601f016020809104026020016040519081016040528092919081815260200182805460018160011615610100020316600290048015610a035780601f106109d857610100808354040283529160200191610a03565b820191906000526020600020905b8154815290600101906020018083116109e657829003601f168201915b50505050509050919050565b6000806000848152602001908152602001600020905081816000019080519060200190610a3d929190610be5565b50505050565b606080600080848152602001908152602001600020600001600080858152602001908152602001600020600101818054600181600116156101000203166002900480601f016020809104026020016040519081016040528092919081815260200182805460018160011615610100020316600290048015610b055780601f10610ada57610100808354040283529160200191610b05565b820191906000526020600020905b815481529060010190602001808311610ae857829003601f168201915b50505050509150808054600181600116156101000203166002900480601f016020809104026020016040519081016040528092919081815260200182805460018160011615610100020316600290048015610ba15780601f10610b7657610100808354040283529160200191610ba1565b820191906000526020600020905b815481529060010190602001808311610b8457829003601f168201915b5050505050905091509150915091565b6000806000848152602001908152602001600020905081816001019080519060200190610bdf929190610be5565b50505050565b828054600181600116156101000203166002900490600052602060002090601f016020900481019282601f10610c2657805160ff1916838001178555610c54565b82800160010185558215610c54579182015b82811115610c53578251825591602001919060010190610c38565b5b509050610c619190610cad565b5090565b50805460018160011615610100020316600290046000825580601f10610c8b5750610caa565b601f016020900490600052602060002090810190610ca99190610cad565b5b50565b5b80821115610cc6576000816000905550600101610cae565b509056fea26469706673582212205fa140e3d8c3e74f85690639c6b97151f78f167e4896e640b93f95a3ba2c76bb64736f6c63430007000033",
  "immutableReferences": {},
  "source": "// SPDX-License-Identifier: GPL-3.0\npragma solidity 0.7.0;\n\ncontract PhotoAlbum {\n  mapping(uint => Photo) photos;\n\n  struct Photo {\n    string name;\n    string picture;\n  }\n\n  uint public photosLength = 0;\n\n  function addPhoto(uint _id, string memory _name, string memory _picture) external {\n    photos[_id] = Photo({ name: _name, picture: _picture });\n    photosLength++;\n  }\n\n  function deletePhotoById(uint _id) external {\n    delete photos[_id];\n    photosLength--;\n  }\n\n  function getNameById(uint _id) view external returns(string memory) {\n    return photos[_id].name;\n  }\n\n  function getPictureById(uint _id) view external returns(string memory) {\n    return photos[_id].picture;\n  }\n\n  function getPhotoById(uint _id) view external returns (string memory name, string memory picture) {\n    return (photos[_id].name, photos[_id].picture);\n  }\n\n  function updateNameById(uint _id, string memory _name) external {\n    Photo storage photo = photos[_id];\n    photo.name = _name;\n  }\n\n  function updatePictureById(uint _id, string memory _picture) external {\n    Photo storage photo = photos[_id];\n    photo.picture = _picture;\n  }\n\n  function updatePictureById(uint _id, string memory _name, string memory _picture) external {\n    Photo storage photo = photos[_id];\n    photo.name = _name;\n    photo.picture = _picture;\n  }\n}\n",
  "sourcePath": "/home/annipi/TRU/Clases/dapps/ig-app/contracts/PhotoAlbum.sol",
  "compiler": {
    "name": "solc",
    "version": "0.7.0+commit.9e61f92b.Emscripten.clang"
  },
  "schemaVersion": "3.3.2",
  "updatedAt": "2020-11-25T14:33:37.458Z",
  "devdoc": {
    "kind": "dev",
    "methods": {},
    "version": 1
  },
  "userdoc": {
    "kind": "user",
    "methods": {},
    "version": 1
  }
}